:020000041000EA
:1000000000B5324B212058609868022188439860DF
:10001000D860186158612E4B002199600221596106
:100020000121F02299502B49196001219960352056
:1000300000F044F80222904214D00621196600F024
:1000400034F8196E01211966002018661A6600F04E
:100050002CF8196E196E196E052000F02FF8012189
:100060000842F9D1002199601B49196000215960AB
:100070001A491B48016001219960EB211966A021F2
:10008000196600F012F800219960164914480160C1
:100090000121996001BC002800D000471248134993
:1000A000086003C880F30888084703B5996A0420EC
:1000B0000142FBD001200142F8D103BD02B5186610
:1000C0001866FFF7F2FF186E186E02BD00000240BE
:1000D000000000180000070000035F00212200005C
:1000E000F4000018222000A00001001008ED00E03C
:1000F00000000000000000000000000074B24E7A12
:1001000000200420F7010010C3010010C5010010F9
:10011000C1010010C1010010C1010010C101001097
:10012000C1010010C1010010C1010010C701001081
:10013000C1010010C1010010C9010010CB01001065
:10014000CD010010CD010010CD010010CD01001037
:10015000CD010010CD010010CD010010CD01001027
:10016000CD010010CD010010CD010010CD01001017
:10017000CD010010CD010010CD010010CD01001007
:10018000CD010010CD010010CD010010CD010010F7
:10019000CD010010CD010010CD010010CD010010E7
:1001A000CD010010CD010010CD010010CD010010D7
:1001B000CD010010CD010010CD010010CD010010C7
:1001C00000BE00BE00BE00BE00BE00BEEFF3058054
:1001D000103800BEF2EB8871D80200102003001026
:1001E0003402001090A31AE700202249086006C8D4
:1001F00081F30888104720480068002835D10DA4F5
:100200000ECC002902D000F012F8F9E71B491C4A75
:10021000002000E001C19142FCD11A4988471A49E7
:1002200088471A49884700BEFDE701C901C29A42C2
:10023000FBD3704720030010C0000020888D0020F1
:10024000E88F0010908D002000A2002058A400101C
:10025000000004200000042058A400100010042016
:1002600000100420000000007047094800F014F856
:100270000047000008ED00E0000000D000A20020D0
:100280009805022081380020F101002075390020F6
:10029000575600000000000001B40248844601BC2B
:1002A000604700BF213A002006005250ABB36053B4
:1002B000149E002006005250861C0302249E00203B
:1002C000060052505422A29D309E0020050052503C
:0802D000DE65F46858A400107B
:1002D800F89A0020EC9A0020E09A0020D49A002096
:1002E800C89A0020BC9A0020B09A00203C9E0020AA
:1002F800489E0020A8020010549E0020B40200105E
:10030800C0020010CC02001018A000200CA0002091
:080318009C9E0020909E002035
:10032000F8B5C0460448054B10B5834203D0044BD2
:10033000002B00D0984710BD00A2002000A2002092
:100340000000000006480749091A8B10C90FC91898
:1003500010B5491003D0044B002B00D0984710BDB6
:1003600000A2002000A200200000000010B5074CF1
:100370002378002B09D1FFF7D5FF054B002B02D0C6
:10038000044800E000BF0123237010BD68A50020D1
:1003900000000000888D0020054B10B5002B03D015
:1003A0000449054800E000BFFFF7CCFF10BDC04680
:1003B000000000006CA50020888D00207047C0461A
:1003C00010B50220D02403F053F8042324066362FE
:1003D0000F2003F04DF880231B026362102003F00E
:1003E00047F880235B026362072003F041F8802313
:1003F0000820636203F03CF880235B00636210BD59
:1004000030B583B007F0DCFED0240125019024062E
:1004100001200021404204F061FC63689B081D42FA
:100420000AD00423A36104F049FC0028F0D1012183
:1004300001A808F065F8EBE704F0A8FB0028F0D06D
:1004400004F0ACFB0028ECD104236361EBE7C04669
:1004500010B582B0FFF7B2FF06F060FB00F0F4FBCE
:1004600000F01EFA05F05CFF04F04AF901F0A2FD6D
:10047000FFF7A6FF124B80240193032364002200A0
:10048000009310490023104807F0D0FB0F4B2200C7
:10049000019302230E4900930E48002307F0C6FB88
:1004A0000D4B2200019301230C4900930C480023BB
:1004B00007F0BCFB07F08EFD002002B010BDC04667
:1004C00094040120049B00201908002058040120F6
:1004D0000C9B0020A1010020F8FC0020109B0020B4
:1004E000910F00200020704770B51800084C04AB35
:1004F0001D88210000F050FF2B1C402D00D9402307
:10050000220000219BB2002005F048FC70BDC046CF
:1005100020A60020F0B505001400012083B00129B9
:1005200005D1137800205B069B0F022B01D003B08E
:10053000F0BD5378012BFAD1637912791B02134372
:10054000072BF4D16B46074E9F1D31000222380065
:1005500003F0D2FE3200210028003B88083A05F063
:1005600059F8E4E75C9B00207047C04610B502488C
:10057000097803F033FBC046149B002010B50148F6
:1005800003F02CFB449B002000487047C49C0020D3
:1005900000487047A09C00203E2306220148C25418
:1005A0007047C04688A0002010B5002825D0062836
:1005B0002ED8184B8000C458200008F0E5FCC0B2CB
:1005C000011C1F2814D8C9B200281FD00023124ACA
:1005D000E05C01331080D8B202328142F8D8C023E7
:1005E0000131C9B249009B000B430C48038010BD88
:1005F0001F21C9B20028E9D108E0064B0222196880
:10060000054803F079FEC1239B00EEE7044BECE7BD
:100610000020ECE76CA00020DAB80020D8B8002059
:100620000203000000487047089C002010B5040039
:10063000052003F0E3F9FA21890003F053FB2100C0
:1006400003F050FB032805D980080004C823034A9F
:10065000D05010BD80204002F8E7C0460000205076
:10066000431EFF2010B5802418400A4B64001B680D
:10067000094A5B0218430443802040025368034246
:10068000FCD180201461044A400253680342FCD12B
:10069000116110BD6C01012000002050431EFF209D
:1006A00080211840094B0A4A1B6849025B02184323
:1006B00053680B42FCD110618022054952024B68FD
:1006C000180010401342FAD1086170476C010120F4
:1006D000000020500E4B30B51C68FF238021050020
:1006E000421E0834134064020A4A1C4349025368FC
:1006F0000B42FCD180211461064A490053680B4229
:10070000FCD1106A1F2D02D820235B1BD84030BDBE
:100710006C010120000020500A4B80211868FF2343
:1007200003304002084A1843490253680B42FCD187
:100730008021490410619160034A93680B42FCD008
:100740007047C0466C0101200000205080210A4BF8
:100750000A481B680A4A03335B021843490253687C
:100760000B42FCD18021490410619160044A9368D6
:100770000B42FCD07047C0466C010120FF01000015
:1007800000002050F0B5C64600B5284C86B063681E
:10079000002B03D006B080BCB846F0BD24492548E4
:1007A00006F0D4F90300C61C0A33F2011B031343FD
:1007B000214A802513408022D20513430393C0238E
:1007C0001B03984604931D4B2060059301230700EB
:1007D0000C220021174800936D020133029506F0A8
:1007E00047FA049B164A002113404246134311481E
:1007F0003A00049302AB06F08FFA052003F0FEF8EE
:10080000104B98420BD8C82301210A4AD550103307
:10081000D65013688B430B4313606160BAE70A49F3
:1008200003F060FA85082D04EDE7C0466C01012055
:10083000D89C002000002050FFFFFF9FCEB116443F
:10084000FFFF00C0FF083D0040420F0070B5114C93
:100850006368002B1CD0FF23802022680E49D51C22
:100860006D021D4340024B680342FCD180204004CE
:100870000D61886008498B680342FCD001200B6839
:1008800083430B600448054906F0D8F900236360F0
:1008900070BDC0466C01012000002050D89C002093
:1008A00010B50221042002F08BFD0221052002F088
:1008B00087FD00220121042002F0A4FD0022012175
:1008C000052002F09FFDE1210248490202F0EEFD01
:1008D00010BDC046008003401021F8B50C005B4AF3
:1008E00093691C40194242D1594801349369194215
:1008F000FCD1136803559369194201D1202CF4D11E
:10090000002004F075FF002836D00122514B002052
:100910001A60D0237F321B065A614F4A4F4B126830
:100920001A6005F04BF8844200D980E022000020D4
:100930004B4905F029F8002004F0E8FF002004F0FE
:100940006FFF1F282ED8002004F06AFF021E27D157
:10095000444D2B68002B55D02B68013B2B60424E39
:100960003378DCB2002B3FD100242000F8BD0020FA
:1009700004F03EFF00284BD1364C2368002BF3D007
:10098000002005F027F80021304802F0A3FE0023E4
:10099000354A23601370334A1360344A1360E3E727
:1009A000102800D91022D02380211B06490059614C
:1009B000294B2F491B682B4D00200C002B6004F0A5
:1009C0003BFF210024180028C9D020201F4A93692A
:1009D0001842FCD10B7801311360A142F7D1224EAD
:1009E0003378DCB2002BBFD0224B1F6807F0E8FB46
:1009F0008742BADA002400211448347002F06AFEFB
:100A00002C60B1E7D02380221B0652009A61A6E732
:100A10000122104B1A60114A1368002B02D0013BCF
:100A200013608BE7D02380221B069A6186E70020A3
:100A300004F0C4FF844203D90C4A136801331360E5
:100A4000002800DC7AE7040070E7C046008003401D
:100A50001B040120CC040220ECA000203C04012057
:100A60001C0401207C04012094050220E8FC0020E5
:100A70005C040120E0FC002070B507F0A1FB084CED
:100A8000084D2060FFF728FF0028FBD120002968CF
:100A900007F036FD0028F5D107F092FBF1E7C046DC
:100AA0004C010120F0A000204A780B7812021A4372
:100AB0008B7870B50C00C9781B04134309061943E1
:100AC00000D10131294803F00DF9294D06002868AD
:100AD00007F0D2F9312E36D80122264B1A60FA23BC
:100AE0005B00254A2548136002F0A4FD002004F0B5
:100AF00071FF002004F0DAFE6278237812021A43B4
:100B0000A378E1781B041343090619431B4802F03C
:100B1000CDFC6379012B27D0023B5A425341DBB213
:100B2000A1794A1F032A00D9082120790022012433
:100B30000138844252411148013202F08DFD28688B
:100B400007F000FA70BD3221300003F0CBF8094BFA
:100B50008100186009180A480123C9008142C0D8E1
:100B600003F0C0F80300BCE70223D9E70068890955
:100B700094040120F0A00020ECA00020008003409D
:100B8000204E00000C4B10B518681400002901D14C
:100B9000002A02D007F0D6F910BD07F06DF9D02376
:100BA00080221B069A61054A1460802252009A61D5
:100BB000034B1C60F0E7C046940401203C04012074
:100BC0007C04012010B50C1E1AD01A4B994220D07B
:100BD0000121194802F07EFD0122184B1A70D02322
:100BE000FF321B065A618022154BD2051A6007F0AE
:100BF000E7FAA3001B19134A9B001B18136010BDD2
:100C000000210D4802F066FD0C4B1C700C4B1C6063
:100C1000F5E70121084802F05DFD0022074B1A703C
:100C2000D02301321B06FF325A618022044BD205C9
:100C30001A60E4E7FFFF00000080034094050220F3
:100C40007C040120E0FC002070B5774C200003F00C
:100C5000A1FD2378180901001A01D2B230319F2B6F
:100C600000D90731714B1009197000212170010062
:100C700030319F2A00D9D4E0597061780D092800DD
:100C80000A01D2B230309F2900D9BFE0002198700C
:100C900010096170010030319F2A00D9B4E0D97089
:100CA000A1780D0928000A01D2B230309F2900D95D
:100CB0009FE0002118711009A170010030319F2AB6
:100CC00000D994E05971E1780D0928000A01D2B2E7
:100CD00030309F2900D97FE0002198711009E17020
:100CE000010030319F2A00D974E0D97121790D09B2
:100CF00028000A01D2B230309F2961D80021187231
:100D000010092171010030319F2A57D85972617939
:100D10000D0928000A01D2B230309F2944D80021A1
:100D2000987210096171010030319F2A3AD8D97246
:100D3000A1790D0928000A01D2B230309F2927D8A5
:100D4000002118731009A171010030319F2A1DD8AC
:100D50005973E1790D0928000A01D2B230309F2978
:100D60000AD8002198731009E171010037319F2AD8
:100D700000D80739D97370BD002107309873100966
:100D8000E171010037319F2AF4D8F2E70731DFE73C
:100D90000021073018731009A171010030319F2A1A
:100DA000D6D9F3E70731C2E700210730987210095E
:100DB0006171010030319F2AB9D9F3E70731A5E706
:100DC00000210730187210092171010030319F2A6B
:100DD0009CD9F3E7073188E70021073098711009A3
:100DE000E170010030319F2A00D87EE7F2E7073139
:100DF00068E70021073018711009A1700100303137
:100E00009F2A00D85EE7F2E7073148E70021073064
:100E1000987010096170010030319F2A00D83EE7B8
:100E2000F2E7073128E7C046800401209C04022035
:100E3000F8B5124F124D7B682A6804000E009342E9
:100E400018D001335901C91A8900C91809010D4880
:100E500002F048FFFFF7EAFB7B682B60002C0BD009
:100E60002500082C00D9082531782800FFF7F8FB69
:100E7000641B0136002CF3D1F8BDC04604A6002047
:100E8000E4FC002040597307F0B5C6461F4B204CC8
:100E90001500984622685B6807000E0000B5934273
:100EA0000DD001335901C91A8900C918090119481F
:100EB00002F018FFFFF7BAFB43465B6823603F234D
:100EC0001C003C403B4212D140243F0611D52E006D
:100ED0002500082C00D908252800FFF7FBFB641B20
:100EE00030700136002CF3D180BCB846F0BD3F060F
:100EF000EDD42500082C00D9082531782800FFF70B
:100F0000AFFB641B0136002CF3D1EDE704A60020F3
:100F1000E4FC002040597307F8B5DE4657464546C5
:100F20004E46E0B5554D564F6B683A6804008B4607
:100F300093420CD001335901C91A8900C91809011B
:100F4000504802F0CFFEFFF771FB6B683B60012356
:100F50001E00E1086708A0081F4018400B40202130
:100F60003A18264092199A18520111407200114302
:100F7000BF003943C00001431B01194381230820EE
:100F80001943FFF76DFB287E0330FFF7A3FBFF2318
:100F90000700287E1F4098460741012F21D00226D6
:100FA000BB1EB3430AD02130FFF794FBFFB23800D9
:100FB000F0BCBB46B246A946A046F8BD6B7E002BEE
:100FC0002DD0264252D1FFF769FB6B7E002BEDD06E
:100FD00000212020FFF744FB00210120FFF740FB08
:100FE000E4E7A30723D4FFF759FB5B461E682020E4
:100FF0003100FFF735FB300007F0B6FF010001209C
:10100000FFF72EFB0127240602D51F4B9B6AAB601E
:10101000287B0028CBD00021FFF722FBC7E7FFF792
:101020003DFB6B7E002BC1D02642BFD1D0E72020F4
:10103000FFF750FB81460120FFF74CFB82464846F4
:1010400002F018FE52464346134043403B405A1EAE
:10105000934106375B421F405B460137002B01D0AE
:101060004A461A60287EFFF719FBCCE72120FFF7DC
:1010700031FB287EFFF712FB98E7C04604A600204C
:10108000E4FC002040597307004005407047C0460B
:101090007047C04600207047F0B54646D6464F46DA
:1010A000C0B54B7906000C00FF2B1FD18B79002BAC
:1010B0001CD1CB79002B19D1802081464F461E4987
:1010C0001E4D0B5004300B50A846EB512B50892578
:1010D00004307F3F4B550F5441464B550F542379F5
:1010E000DD00ED1A0935ADB2954206D9002528007C
:1010F000E0BCBA46B146A846F0BDE37A21009A4664
:1011000052460F4B300009311A7004F0F7F94A4685
:1011100043469B5851461F40BA0142444023300089
:1011200004F02EFA2100074BA27C300010311A7017
:1011300004F0E4F9DBE7C046ECA6002060A600203E
:101140008F0502208E050220F8B5CA090024012A65
:1011500014D0402B10D880268422214DAB59AF5893
:101160000133833A1340BB4219D18923EA541D4B02
:101170000124186806F0E6FE2000F8BD402BFBD8DD
:1011800084258826184C635901336351A35D002BD5
:1011900012D0144B0124186806F0D4FEECE7AB59CA
:1011A0000133AB51AB591A4092014023521904F05C
:1011B000E7F98923EC54ECE767590C4B3A401B687C
:1011C00092019BB2121904F0DBF980226359A258F4
:1011D00001339B1A5A425341DBB2A355D9E7C046AB
:1011E00060A60020F8FC0020ECA60020A4B9002096
:1011F000F0B54E46DE4645465746E0B580255B4B8A
:1012000085B000935A4B5B4C02935B4B5B4E019352
:101210005B4B9B465B4B99465B4B03938423E258A5
:1012200063599A425CD084239A465346E758012377
:101230003B409B01E15C7E2913D17F2290464246D0
:10124000E254635901379F4205D1306806F014FE1D
:101250006359BB42F9D001233B409B01E25C7E2AEB
:10126000EDD053460127E1584022394089010098CA
:10127000611803F041F853465246E3580133A35036
:1012800089239846E35C002B5AD10199009800F01D
:101290006FFE5B46186006F08BFF4B4651465A596D
:1012A0005B589A4220D04B465A4601205B5912683F
:1012B0001840800112040199120C484403F01CF8F4
:1012C0004B464A465B594946013353518823002215
:1012D000CA5407F061F85346E25863599A42A4D1C0
:1012E000306806F0C9FD99E74B4658595B4601271F
:1012F0001A683840800112040199120C484402F027
:10130000FBFF4B464A465B590399013353514B4609
:1013100052469A585B463A401B6892019BB24A4437
:101320000978002004F02CF907F036F85346E3580A
:1013300062599A4200D078E7306806F09DFD6DE76B
:1013400006F036FF635900200133635163591F4093
:10135000029BBA011978A218402304F011F9002366
:101360004246A35407F018F88FE7C04684A5002032
:101370008F05022060A60020C4A50020F8FC0020F4
:10138000A4B90020ECA600208E05022001230370E2
:1013900000487047F89C0020F0B54E46DE465746A0
:1013A0004546E0B5037804001A00803AD2B20E0038
:1013B0008DB01F2A08D94A1C92460B701D2B0ED8DF
:1013C000CB499A008A58974600F012FE040020008C
:1013D0000DB0F0BCBB46B246A946A046F0BDFF2307
:1013E000C44C3370F3E7B31C994600237370427802
:1013F000831C561E002A00D19BE0012292463E32F9
:101400000124934612E0FFF7A1F94A46414628001D
:10141000FFF73AFD002E00D18EE143460134DB197F
:10142000E419721E002E00D196E116005A1C1D7898
:1014300090465B465A4608272B402A4201D0073384
:10144000DF086BB2002BDEDAFFF766F94A46414649
:101450002800FFF719FD002E00D184E14346013436
:10146000B944BA44DDE7FF23447873700134FE3B8E
:1014700024041C439F4B9C466444A8E79E4B1B7866
:10148000012B01D100F015FCFF239C4C73709EE7EB
:10149000994F3B78012B00D1A6E300230322737000
:1014A000B370F37023799B0700D471E18024914BD2
:1014B000E4029C461443644489E78F4F431C09931C
:1014C0003B780893012B00D171E18278C31C002A7C
:1014D00001D100F0D7FC0220102406E00C4207D115
:1014E0000133013A002A00D140E119780842F5D1D0
:1014F0000533F6E74378804A804C1373C3788178CC
:101500001B020B431382437901791B020B43538265
:10151000002373705BE70024774B1C70FFF796F98C
:101520007470774C53E743780024012B00D8C9E04E
:101530007470744C4BE74378002B00D1DCE2012B34
:1015400000D023E18278134200D1C6E3D023802269
:101550001B0652025A610023AEE04278F12A00D104
:10156000D3E300D9EBE0042A00D1C4E33121F02A0F
:1015700001D000F0CEFC0123634CB170737026E7FC
:101580008278437812021A43C37801791B0413430B
:101590000906194300D108E15C4B994200D9A8E241
:1015A000C81802F09FFB431E5A1E93410022C01A26
:1015B000514B5A7058600023554C737007E7032253
:1015C000002443784C491A405B070132DB0F0A764E
:1015D0004B767470ADE7811C4078002800D1D1E0D3
:1015E0000123C41DE408013424041C43414B9C46E0
:1015F0006444FFF71DFC00237370E8E6FF2373705B
:101600004378811C581E002B93D001233F252A00CC
:101610000C782240254200D188E00732D2080132FE
:1016200089189B180138F2D201221B041343314A56
:101630009C18CCE60023374CB3707370C7E623794F
:10164000E2781B0213436279417812041A43A379AA
:1016500080781B06134320D02F4A934200D91300F1
:101660002E4A946AC50700D588E2850700D559E35C
:10167000042520270540074040B2002801DB00F088
:101680005BFC002F28D1002D01D000F01AFCC80906
:1016900003D0906A001B8342F5D80023204C73705E
:1016A00095E68278437812021A4353019B1A9B00F5
:1016B0009B18013BFDD100231A4C737087E6FF2471
:1016C000747036E701220C4B1A70FFF75BF8164B6B
:1016D0001C60013474702CE7002D01D000F0EBFB8E
:1016E0004809DAD0906A001B9842F5D3D5E7C04686
:1016F000189D00200100010004A600200200060041
:101700000200010002000200030002009FACB903C6
:101710000200050003000100C0C62D000040054086
:101720000200070002000300E4FC00200931093335
:10173000013800D36BE777E7FFF708F86DE6FE2A7C
:1017400031D0FF2A00D0E4E34023B3700023F370CC
:101750000233C34C73703AE6534624041C43C14B16
:101760009C46644433E6FEF7F1FF77E6099A9C1A3B
:10177000022324041C43BB4B9C4664440023737027
:10178000B37024E68020B84C400032E7FF2393E793
:10179000A378E47824021C43B24B01349C46A40491
:1017A0001443644413E60221E5E6FF2304E7F31C37
:1017B00006930023AD4DC11C2B7083789946002BF6
:1017C00000D19BE300230022B34698462E000793E6
:1017D0000293059202200D784B1C42460493284246
:1017E00000D1AAE0002A33D011223C8A2A40012AE3
:1017F00000D131E18846019307E0002C00D1A7E138
:101800003378013C002B00D0A5E10E200BA9FFF797
:1018100083FB0228F1D00022414690460200019B42
:101820000590012A00D06EE30B98069A040A107006
:101830005470040C000E9470D070140040460434B0
:10184000002804D06AB2002A00DA88E105900694E4
:10185000E80600D4AEE058781A78000210439A786F
:10186000DB78120402431B06134301934B1D0493C0
:101870007B8AEA0715D53C8A039307E0002C00D148
:10188000A3E03378013C002B00D09EE0002128002B
:10189000FFF742FB0228F1D0039B0590012800D0FE
:1018A00031E34246B8461F00039243461C8A05E0D6
:1018B000002C35D03378013C002B31D128000BA906
:1018C000FFF72AFB02000228F2D0012828D1434664
:1018D0000B995C69019B21408B4200D117E1002FDD
:1018E00003D03278013F002ADFD0039A4746350003
:1018F000030090465E4610221A43D2B20221102005
:101900004C469446049B06E0104207D10133013C4B
:10191000002C00D103E11A781142F5D10533F6E726
:10192000474603990300884678690B9935000140C2
:1019300001985E468142DED1E0E7002A49D158781D
:101940001A78000210439A78DB78120402431B06CF
:10195000134320220B9305312A425ED07B61002382
:10196000984601330593029B013302933378002B91
:1019700000D004E2013B9C46E1444B46002B00D0E2
:1019800028E735005E46059A0491012A00D1D1E18D
:10199000D3B20893029B099A7370089BB370049B9F
:1019A0009C1A5246069B24049B1A1C432D4B9C46B2
:1019B00064440CE53C8AE9076BD54246002A00D115
:1019C000E4E0190000230793CDE7350002005E46EE
:1019D00094E73C8A019503930D0005E0002CF4D0B8
:1019E0003378013C002BF0D10E200BA9FFF794FABD
:1019F0000228F3D02900039B019D0590012800D007
:101A000081E20B9A069C100A22706070100C120E74
:101A1000E270221DA070069291E73B8A88461C0066
:101A200007E0002C00D1D8E03378013C002B00D037
:101A3000CBE028000BA9FFF76FFA0228F1D041464E
:101A40000590012800D062E26DB2002D6ADB01230F
:101A500007930023984686E7019103930EE0C04662
:101A60000400020001000100020022008C05022097
:101A7000002C67D03378013C002B63D128000BA9E0
:101A8000FFF74AFA0228F3D002000199039B059060
:101A9000C7E6019305E0002C97D03378013C002B7A
:101AA00093D128000BA9FFF737FA0228F3D0019B46
:101AB0000590012800D026E26DB2002D0ADAB9683F
:101AC000069A080A11705070080C090E9070D170B7
:101AD000043206920B99069A080A11705070080C8D
:101AE000090ED170190000239070043206920793FA
:101AF00039E7012201205BE58378DB0700D4F3E0BE
:101B0000D02380221B0612025A610023D4E5039BD6
:101B100047469846002304990590079323E76246B9
:101B2000049332E7BB68069A180A13705070180CB9
:101B30001B0ED37001230793131D0693002390708F
:101B4000984610E7350044465E46A0460222D5E698
:101B500035005E46F9E7350000245E46F5E7BA68D1
:101B6000069C100A6071100C2271A071120E2000E8
:101B7000E271424608300592069069E6002900D1DC
:101B80008BE5916A091B8B42FBD886E5019307E040
:101B9000002C00D109E13378013C002B00D014E780
:101BA00000212800FFF7B8F90228F1D0019B059029
:101BB000012800D0A7E16DB2002D00DAE4E0002298
:101BC0000792013290461900CDE6414602000023FB
:101BD000350098465E46049190E641463500020085
:101BE000A0465E46049189E60022CC4D81782A7099
:101BF000C27812020A43019200D13EE10279914675
:101C0000920700D5D7E0431D9A4600232A009B4641
:101C10000BAB4D468046B1461C001600029753465A
:101C20001A785B781B0213435246927812041A43C7
:101C30005346DB781B0613430B9304239C46029BFD
:101C4000E2441F8A05E0002F30D03378013F002B9B
:101C50002CD121002800FFF75FF90228F3D00128DA
:101C600024D101239C46019BE344013B0193002BBB
:101C7000D5D1029F350044464E463F8A06E0002FEC
:101C80000AD02B78013F002B00D031E100210E203B
:101C9000FFF742F90228F2D05B460322190ADDB2AF
:101CA000C9B27570B170F070FFF7FCFB44464E4648
:101CB000F2E7C37882781B02134302790BA912045E
:101CC0001A43437900201B0613430B93FFF724F9B3
:101CD0000023934C7370FFF77AFBD02380221B06FE
:101CE00052029A610023E7E4D02380221B061202ED
:101CF0009A610023E0E406228A49B01C02F0FCFA53
:101D00000623894C7370FFF762FB4023B3700233E4
:101D1000F370333B3371002373710433834C73705E
:101D2000FFF755FB490800D1B7E4916A091B9942B6
:101D3000FBD3B2E44346002B00D1A5E00BAB3C8AB9
:101D40001F0007E0002C00D1B2E02B78013C002BF3
:101D500000D0ADE039000E20FFF7DEF80228F1D008
:101D6000012800D0A4E00B9B06991A0A0B704A7058
:101D70001A0C1B0ECB700B1D8A7006930AE63500F9
:101D8000059A5E460491B9E5B968069A080A117089
:101D90005070080C090ED170002190700791043228
:101DA0000131884606921900DDE500233500020066
:101DB0005E469846A2E54A46134217D03A8A8346C1
:101DC0001400984607E0002C00D18BE02B78013CF2
:101DD000002B00D086E000214846FFF79DF802283E
:101DE000F1D043465C46012800D07CE000208346C9
:101DF0000BA8D846321DB34604972E004F46A14685
:101E000004000199059301390292002930D0049B06
:101E10001D8A0391019205E0002D1FD03378013D0A
:101E2000002B1BD121003800FFF776F80228F3D0F1
:101E30000399019A012812D10B98029B050A107090
:101E40005570050C000E9570D87001239C46043225
:101E5000E044481E00293AD00100D5E7019A4346E4
:101E6000190ADDB253464C465E46C9B2D21A18E78B
:101E700001233B42CBD00E27C9E7032200200021DB
:101E800000250EE72A4C79E4079B002B00D181E561
:101E90003C8A05E0002C09D02B78013C002B05D1B1
:101EA00000210E20FFF738F80228F3D0089071E5E2
:101EB000C3B208936EE5880801D0FFF713FCFFF763
:101EC000ECFB880801D0FFF7E4FBFFF7E6FB414697
:101ED0005046059BCDB2090A121A4C465E461800C0
:101EE000C9B2DEE65C46002103220D00C0B2D8E68E
:101EF0005B46DDB21B0A0322D9B2D2E6002304916D
:101F00000293089346E53500059A5E46F6E4059A85
:101F10005DE6084C7370FFF75AFAC0468C05022044
:101F200002000600109D00200800020006000200CA
:101F30000300030002000200002D0ED14909002F0A
:101F400001D1FFF7AAFB002901D1FFF7A6FB906A98
:101F5000001B8342F7D8FFF7A0FB890801D1FFF7E8
:101F60009CFB916A091B8B42FBD8FFF796FBC0468E
:101F7000F8B503787F2B04D0FFF70EFA0500280090
:101F8000F8BD0B7044780A4D861C8F1C4C70002CD9
:101F9000F5D039003000FFF7FFF9030C2D180004CD
:101FA000000C013CF6183F18002CF2D1E7E7C046C0
:101FB000020002003D210D4B10B55960002119733C
:101FC000002264211A8019615A610C2001325E39A5
:101FD0001A8301F0F5F906210E2001F0F1F9002233
:101FE00001210E2001F00EFA10BDC04604A600200B
:101FF000037801480B70704701000100024B9C46BA
:1020000061448900016070474000003410B504004D
:1020100000F03EFD01002000FFF7F0FF01235B42CE
:102020006360BFF35F8F10BD10B5040000F030FD9A
:1020300001002000FFF7E2FF01235B426360002301
:102040002372BFF35F8F10BD10B50400012000F0B4
:102050002BFD034BC3189B002360BFF35F8F10BDA4
:102060004000003483680B4810B5844661446244E4
:102070001201090159189B185C684A6801209442B2
:1020800001D802D00020C0B210BD1A680B689A4275
:10209000F9D8F7E7FFFFFF0F074810B50268EFF325
:1020A000108172B61368002BFCD0BFF35F8F04F071
:1020B000E1FF0020002110BD44040120F8B557467F
:1020C00045464E46DE46E0B598460CAB1C780DAB57
:1020D0001B78070091469A460568002C5ED1AC7BC0
:1020E000002C3BD0660029683619033E89194B78CD
:1020F000AB73002B00D1EB7300238B704B700B7014
:102100002D4BE218BB6812019B184A461A604246E2
:102110005A600A9A9A600B9ADA6000238B704B70AF
:102120000B706B7B9B46002B2BD022005946A86876
:102130006B6898472A68002816D05B4658465B00B3
:102140005B449619033BB070D118D35C002B00D0D0
:1021500073705B460C706B735C4513D0F0BCBB4670
:10216000B246A946A046F8BD5B465B005B44033B14
:10217000D3189C709119925D002A00D05A705B466A
:102180000B706C734A464346387D00F059FB051EC0
:102190000AD10E9B002BE1D01D70DFE76600296895
:1021A0003619033E8919ABE75346002BF1D12100C4
:1021B000386801F0C9F8ECE7FFFFFF0FF0B5DE4625
:1021C00057464E4645460023E0B58BB00893684B12
:1021D0008200D45800239B46099000F0ADFA02001B
:1021E0000B006068EFF3108A72B65646016800294A
:1021F000FCD0B246BFF35F8F21684F7B8C46002F27
:102200002ED0A5685B49A946791809018944494639
:102210000868496805000E00AD1A9E41002E5FDD7A
:1022200002000B00099800F00BFB002300229946E6
:10223000002306920793002398466368BFF35F8FDD
:102240005A461A608AF310884346002B12D10028A0
:10225000C3D10BB0F0BCBB46B246A946A046F0BD08
:1022600000230022994600230692079300230020B2
:102270009846E2E7089B494618023843C04762681F
:1022800005000E00EFF3108A72B61368002BFCD025
:10229000BFF35F8F002E41DB2B00334302D0236955
:1022A000002B56D12368D97B002905D01A68480035
:1022B00041185218033A57709A7B002A00D19F7335
:1022C000DF73E268013FD35D0133D3555B46236181
:1022D0006368BFF35F8F5A461A608AF310887CE701
:1022E000002E02D1002D00D09AE70021604600F0B8
:1022F000A9FF4B461A685B68069207934B469B689A
:1023000098464B46DB689946E368DB19013B1B782E
:1023100008931B020343236100208EE72369002BEF
:10232000C0D0069A079B8021521BB34109068B42FD
:1023300002D30122104B524200210491013103913A
:10234000494601914146200002970091FFF7B6FEF1
:10235000BCE700F0F1F92A00330012184B4180214C
:1023600009068B42E8D30122034B5242E4E7C04600
:102370005C010120FFFFFF0FFFFFFF7F10B5144C32
:102380006368002B04D00A211248FFF737FE10BD06
:102390002300114A1021206800F06AFE032000F09B
:1023A000BFF9032000F0B4FA03200C4900F002FA50
:1023B00000F06EFB0A4B9C4603232375D0231B06BB
:1023C0001B6860446375074B80006060DC60DAE77F
:1023D000F4A0002044040120051E00205D1F002001
:1023E000400000345C01012000487047F4A0002048
:1023F000F0B557464E464546DE46E0B585B00193FA
:1024000010AB1B780600039300239A46984600926F
:102410007268EFF3108B72B61368002BFCD0BFF319
:102420005F8F3568AC7B002C00D16FE067002B68B4
:102430003F19033FDB195A78AA73002A00D1EA73C7
:102440004B4AA118B268090152180098019910600E
:1024500051600E9991600F99D16042469A705A70FE
:102460001A706B7B9946002B00D170E02200494620
:10247000A8686B6898472A6800285BD04B46484696
:102480005B004B44D719033BB870D118D35C002BC9
:1024900000D07B704B460C706B734C4558D0F36882
:1024A0001B19013B18787368BFF35F8F42461A60AF
:1024B0008BF310885346002B08D10002204305B04F
:1024C000F0BCBB46B246A946A046F0BD039B002B1C
:1024D0004BD00E9B00200F999847030004000D007D
:1024E0000B4342D000291ADA009A019B121BAB4120
:1024F0000092019380221206934204D301231D4CC3
:102500005B4200930194039B9A4681E77368BFF393
:102510005F8F1C608BF3108801204042CFE700F0F2
:102520000BF9802224184D41120600940195954222
:10253000E9D3E3E74B465B004B44033BD3189C7065
:10254000D119D25D002A00D05A704B460B706C73C3
:10255000307D009A019B00F073F9824600289ED0DE
:102560002100306800F0F0FE99E70020A7E7C046A0
:10257000FFFFFF0FFFFFFF7FF0B5EFF30583CE46B0
:10258000474680B505000C0085B0002B0DD0324ABF
:102590000020536A9C4203D8926A0130AA4232D387
:1025A00005B0C0BCB946B046F0BD2C4E02930193B5
:1025B0002B4B0200009330000B00FFF719FF031EA6
:1025C000E5DD20BF7168EFF3108772B60A68002A54
:1025D000FCD0BFF35F8FDAB294463068427B62452D
:1025E00016D0FF2201681A408946510088464946A4
:1025F000904441440339897800290BD132699342D0
:1026000010D131610EE0E31A5A1E9341D8B2C7E7E8
:10261000FF221A40F1681B0A8A18013A1278DBB2CD
:102620009A4214D07368BFF35F8F00221A6087F359
:102630001088094B00205A6A9442B1D89B6A013035
:10264000AB42ADD2A41A631E9C41E0B2A8E761463A
:1026500000F07AFEE6E7C04600400540F4A0002006
:10266000391E0020F0B5EFF30582D6464F464646A8
:102670001000C0B51038EFF3108872B6214C2368F3
:10268000002BFCD0BFF35F8F0123190081401E4D4A
:102690001F006963AA461D4D29601D4D2E78AC466A
:1026A0003500C5402F402B4215D053465F6A194B69
:1026B0008500EB589F4218D36246174B8E43EB5868
:1026C0001670BFF35F8F0022226088F31088002B02
:1026D00006D0984704E0BFF35F8F276088F3108827
:1026E000E0BCBA46B146A846F0BD0C4B92009C46F1
:1026F000624413681360BFF35F8F0023236088F385
:102700001088EDE7280100D0004005403C700540EE
:102710009505022048040120D0FB0020D03F054051
:1027200010B5034B01001800024A00F033F910BD48
:1027300092050220909D0020034B596A0A00986A76
:10274000596A8A42FAD170470040054070B50400CA
:102750000D00174A536A1900966A536A8B42FAD1E0
:102760003000190024184D41AB4216D813D0104B3D
:102770002A005B6A9D4203D90D494B6A9342FCD300
:10278000934207D10A4A02E0516A994202D1916A02
:10279000A142F9D370BDA642E9D9054B5B6A1C0082
:1027A0005A1CEFD0012201246442E5175242E3E7AC
:1027B0000040054070B504000D00EFF3108672B6BE
:1027C0001A4A1368002BFCD0BFF35F8F002D1BD07B
:1027D000200000F08DF9164981420AD0200000F057
:1027E0008FF90121200000F071F90123A340114A63
:1027F0001360114BA400E550BFF35F8F00220B4B19
:102800001A6086F3108870BD0121A1400A4BA20016
:10281000D5500A4B20001A788A4305491A7000F0F7
:1028200093FA0021200000F051F9E5E7280100D0DB
:102830000524002038600540D0FB002095050220CB
:10284000F0B54F46D6464646C0B507002B4C616AE8
:102850000D00A66A616AA942FAD18B4208D805D058
:102860000120E0BCBA46B146A846F0BDB242F7D955
:10287000EFF3108A72B6224801680029FCD0BFF33A
:102880005F8F0125BD401F491C4C88460978894649
:102890002943C9B28C46414660460870391D8900FB
:1028A00065630A511849B8004350216A0020294243
:1028B00019D0616A0800A66A616A8142FAD18B4226
:1028C00019D801D1B24216D8CC450BD00B4B1F22E0
:1028D0001D625D6301233A4093400C4A13604346F6
:1028E0004A461A700120BFF35F8F0022044B1A6022
:1028F0008AF31088B5E70020F5E7C04600400540A0
:10290000280100D0950502204804012080E200E063
:10291000EFF3108C72B60A490B68002BFCD0BFF3A2
:102920005F8F01238340074A0748136202789A4366
:102930000270BFF35F8F00230B608CF31088704729
:10294000280100D00040054095050220024B186880
:102950008007C00F7047C04600C006408023DB05DB
:102960001868000F7047C046EFF3108072B6034A34
:102970001368002BFCD0BFF35F8F70472C0100D091
:10298000BFF35F8F0022024B1A6080F310887047FC
:102990002C0100D070B5EFF3108C72B60D4D2B6882
:1029A000002BFCD0BFF35F8F0724CB08C618C05C98
:1029B00001230C40A3401C000440034207D11843EC
:1029C0003070BFF35F8F2C608CF3108870BD1000E7
:1029D00001F004F92C0100D0F8B54746CE468846F0
:1029E00080B5EFF3108C72B6214D2C68002CFCD012
:1029F000BFF35F8F9A422CD8D4080727055D0619CC
:102A000001241740BC402C421FD0072101278946D2
:102A100009E0D408055D06194C4639001440A14070
:102A20000C00294211D001329342F2D201204042DF
:102A3000BFF35F8F00220E4B1A608CF310880028C2
:102A40000FDBC0BCB946B046F8BD25431000357059
:102A5000EEE7BFF35F8F00232B608CF3108801201B
:102A600040424346002BECD0089801F0B7F8C0462E
:102A70002C0100D00021044B044ABFF35F8F02C336
:102A80009342FAD17047C046000100D0800100D0C7
:102A9000044A1078431CDBB2172B00D910231370A3
:102AA0007047C0461CA1002010B5064B064C82B0F2
:102AB0000100009318221F232000FFF78DFF02B0B2
:102AC00010BDC046B49D0020F4FC002001238340CB
:102AD000002904D0034A1360034A13607047034A75
:102AE0001360FBE780E200E000E100E080E100E04D
:102AF000024B10309B688000C058704700ED00E02A
:102B000070B50D00EFF3108672B60F4A1368002BF4
:102B1000FCD0BFF35F8F0D4B10309B6884001B59B6
:102B20000B4A934203D09D4201D001F075F8074B48
:102B30009B681D51BFF35F8FBFF35F8F0022024B75
:102B40001A6086F3108870BD240100D000ED00E00B
:102B5000CD010010F0B557464E46DE464546E0B57D
:102B600085B0060000911700EFF3108B72B66A4A29
:102B70001368002BFCD0BFF35F8F0025674B5D57B8
:102B80009A46002D00DA8BE06B00654C01935B19CF
:102B90009B009846A146C1444B4652469B7910364D
:102BA0001370604BB6009B6899590B1B2F2B33D9C0
:102BB0005D4B994200D0ACE0019B42469C465B4B8A
:102BC0006544AD0063535A4B0232A218043B9B1A72
:102BD0001B05584A5B0D651913436B80564B012149
:102BE000AB80FF23AB71009BEF71AB604B460B4397
:102BF00019004C4B9B689951BFF35F8FBFF35F8FF8
:102C00000022454B1A608BF3108805B0F0BCBB4620
:102C1000B246A946A046F0BD01200A008243D379FE
:102C20008C46BB4231D84546130044491B1B5B41CF
:102C30005943090D3D4B63533D4B02356519043B28
:102C40005B1B1B053B4D5B0D2B43AA464D466B8022
:102C50000425AC465546E044131F44441B1B1B058A
:102C60005B0D1D434B46997100999D8099604946C3
:102C7000DF71334B01431360BBE75800C01880007D
:102C80002018C179B94211D902000623D356002B6E
:102C9000F3DA0293131D9A462A4B6146039319E017
:102CA00000F0BAFF002553465D576DE79088029308
:102CB0004005131D9A46031561469C464046D44480
:102CC000634604302018181AE0230005400D1B024B
:102CD0001843039004235B429C46E14450464B4614
:102CE0001B1A1B055B0D9C46124B9571984663465B
:102CF000404603439380019B5A199200039BA418FA
:102D0000A380029B0E4AA371009B2260E771A3601F
:102D10006FE700F081FF4FE7240100D09305022008
:102D200020A1002000ED00E0CD01001000A1FFFF78
:102D300050A1002000E0FFFF01BDFFFFAAAA000094
:102D40000148804701BD0000F0B5DE4657464E46BB
:102D50004546E0B50C0083B0EFF3108872B65D4ACB
:102D60001368002BFCD0BFF35F8F5B4B5B499A6805
:102D7000030010339F00D5598D4239D0A5424AD067
:102D8000574EAA1B2F2A33D80122924682409146E1
:102D90004846544A1268104001904846524A106012
:102DA000BFF35F8FEFF305829346002A35D093423D
:102DB00001D000F031FF2A0053469A4390688442C4
:102DC00008D175E04B005B189B00F3189868A0428F
:102DD00034D01A00062151560029F3DA844253D028
:102DE000019B002B26D04A46404B1A603D4B1A608F
:102DF000394B9B68DD51BFF35F8FBFF35F8F0022BC
:102E0000344B1A6088F3108803B0F0BCBB46B2465E
:102E1000A946A046F0BD0D00EAE72A0053469A43B2
:102E200090688442D6D1062010561300002809DA93
:102E30000D0031E04A462C4B1A60D9E7062018569F
:102E4000002822DB42001118890074188A46A16804
:102E50009960E179D971062161569971002925DBC4
:102E6000A488F11A6405241554440919E0240905BD
:102E7000490D24022143998013181D4A9B001178A3
:102E8000F31899711070ABE713005946002914D15B
:102E9000FF3191711749918015490A789A71164A44
:102EA0009B1B5B415A43120D0A7099E71349E2E7F5
:102EB0000620105613000028C4DA114A1149D21A0C
:102EC000083A5002400D014399800F4952080A43C5
:102ED000DA8085E7240100D000ED00E0CD0100108C
:102EE00020A1002000E100E080E100E080E200E0BD
:102EF0009305022001BDFFFFAAAA000001BD00004A
:102F00005AA1002000F0FFFF00F8FFFF032310B5D7
:102F10000400074A18409446C0009C43FC33834099
:102F20006444226881409A4313000B43236010BD20
:102F300000E400E070B5EFF3058101240443EFF3F2
:102F4000108C72B6214A1368002BFCD0BFF35F8F40
:102F50001F4B05001F4AED1A6D416A43120D1E4DAD
:102F60008900AE6852B27658A6421CD00621595646
:102F700091421CD012215956914222D01E215956FD
:102F8000914220D02A2159560324914210D0134B4C
:102F900019781A708171BFF35F8F00220B4B1A6092
:102FA0008CF3108870BDAB680D4C5C50EFE70024CB
:102FB0006100091989005B18FF21997109499980FD
:102FC000E5E70124F4E70224F2E7C046240100D03B
:102FD00020A10020AAAA000000ED00E09305022035
:102FE000CD01001001BDFFFF054B064A1360064AE4
:102FF000136053609360D3601361536193617047B2
:103000008080808000E400E004E400E070B505000A
:103010000E001400002923D0002A12D080686B68AB
:103020009847296800280ED063001B197200033BE3
:103030009219CB18033A9E7088188A5C002A11D125
:103040000470300070BD73009B196200033B1219BD
:10305000CB18033A9C7088188A5C002A05D1067048
:103060002000EFE75A700470EBE75A700670F7E73C
:1030700030B583600023CCB24373013304734260E4
:103080008373C4730D000068012C06D9421C013300
:10309000DBB2137003329C42F9D1FF2129404B006F
:1030A0005B18C01800230338437030BD70B50500AD
:1030B0000C1E07D0630001681B19033BCB185A781C
:1030C000002A01D1200070BD500080180338091873
:1030D00000204E784870210058702800FFF796FFB6
:1030E000310004002800FFF7E1FF0600002C26D085
:1030F0000028E7D021003200A8686B68984729684B
:1031000000280ED073009B196200033B1219CB18E4
:10311000033A9C7088188A5C002A00D05A700670A6
:10312000D0E763001B197200033B9219CB18033AD6
:103130009E7088188A5C002A00D05A70047034008F
:10314000C0E7C046F0B557464546DE464E46E0B5B8
:103150000D006F0001687F19033F0400C85D83B054
:103160000192CA19002850D043001B18033BCB180A
:103170005E78B446002E1AD1019E002E42D0E67B26
:10318000002E04D073009B19CB18033B5D70A37B0A
:10319000002B00D1A573E57300282FD100235370B5
:1031A00003B0F0BCBB46B246A946A046F0BD7200D3
:1031B0006244033A8A185178884600215170894642
:1031C0005970320001002000FFF720FF434682467D
:1031D000002B07D05B0021684344033BCB185A788F
:1031E000002A16D1424651462000FFF70FFF216802
:1031F000019BCA19002BC2D10028CFD043001B1855
:10320000033BCB1800219970C8E7019B002BB6D176
:10321000C4E75000801803380918487883464846A8
:103220004870587041462000FFF7F0FE594680462E
:103230002000FFF73BFF414602002000FFF7E6FEBB
:103240008046CFE7F0B557464546DE464E46E0B5E8
:1032500083B00191457B04006F0000687F19033F34
:10326000C15DC219002952D04B005B18033BC31843
:103270005E78B446002E1CD1019E002E44D0E67B21
:10328000002E04D073009B19C318033B5D70A37B11
:10329000002B00D1A573E573002931D1002328004C
:1032A0005370617303B0F0BCBB46B246A946A0465A
:1032B000F0BD72006244033A8218507880460020C4
:1032C00050708146587032002000FFF79FFE434641
:1032D0008246002B07D05B0021684344033BCB1898
:1032E0005A78002A17D1424651462000FFF78EFE39
:1032F000019B01002068C219002BC0D10029CDD04C
:103300004B005B18033BC31800209870C6E7019B75
:10331000002BB4D1C2E75000801803380918487850
:10332000834648464870587041462000FFF76EFEBD
:10333000594680462000FFF7B9FE414602002000B2
:10334000FFF764FE8046CEE770B5050000292CD05B
:10335000437B8B422ED04C0000686418033C041958
:10336000A278002A21D053009B18033BC25CC618E8
:103370008A4202D11BE0002A08D053009B18033B6D
:10338000C3185A788A42F6D162785A700023012213
:103390002800A3706370FFF7D5FE697B0200280048
:1033A000FFF734FE6873012000E0002070BD6378F1
:1033B0003370EBE701221900FFF7C4FEF2E7C046C5
:1033C000094A10B594464024830063441A68C0003B
:1033D0006240803414408022520113431C60034B2E
:1033E0009C466044416010BD04C001400040014063
:1033F000034BC0009C46604443681F201840704740
:1034000000400140074B80009C4660440368C900AF
:1034100092000A435A400C231A4080235B01034365
:103420001A60704704C00140074BC0009C466044CE
:10343000036809045940C0239B02194080235B01A3
:10344000034319607047C04604400140074BC00069
:103450009C466044036809035940C0239B011940FE
:1034600080235B01034319607047C046044001405C
:103470000123D0228340120693629361094A4021BE
:103480009446830063441A68C0004A40803111406A
:103490008022520113431960034B9C46052360446C
:1034A0004360704704C0014000400140F8B5CE467B
:1034B0004746040080B506200E0000F09FFA051E66
:1034C00051D0524B5249E21853425A418023DB03F8
:1034D0009C4692054F4B62441A604F4B1A60100095
:1034E0008B689843FBD1494B4C4AE31859424B41F6
:1034F00080215B0049000620995200F07FFA3100DC
:10350000C00000F0EFFBC30932D1402201219046F8
:103510006162A362256BEB0736D427008026E36A3D
:1035200000232C3776013E4333600620256300F0EC
:1035300065FA4146800000F0D5FB236B05009846F4
:10354000DB073BD46023E26A5A400E3313403360FA
:1035500043462363802310229B013B431A60304B78
:1035600023630323A3642800C0BCB946B046F8BD5A
:103570002C4A93423FD900232B492C4A6162A36213
:10358000256B9046EB07C8D52200C02330329B0143
:103590001343234A06201A60666AA36AB601F61826
:1035A00000F02CFA224900F09DFBB6020100300029
:1035B00000F098FB0021FFF7C9F8AEE72200C02316
:1035C00030329B011343164A06201A60636AA26ACE
:1035D0009B019946914400F011FA4B4614499B0215
:1035E000994600F07FFB0100484600F07BFB00217C
:1035F000FFF7ACF8A6E77F22990188460240013226
:10360000520819009044130082E7C0460080FCBFB6
:1036100000C0004000E0004000F0004088040120AD
:1036200001030000FEFF0000FFFF0000C0FF3F009D
:103630004E0E0000064BC3185A1E934180221204FE
:1036400094465B429B0D034A9B056344136070479D
:103650000080FCBF00E000400539013AF8B5D20017
:103660004C0105001443002B06D0013B5A42534144
:103670009B00234302241C432E6BF3070BD46E22C2
:10368000EB6A290063401A4080232C315B010B4315
:103690001A602E63F8BD2A00C02330329B01134309
:1036A0000A4A06201A606F6AAB6ABF01FF1800F071
:1036B000A5F9074900F016FBBF020100380000F031
:1036C00011FB0021FFF742F8D9E7C04601030000D3
:1036D0004E0E0000F8B5066B04000D00F3070BD486
:1036E000E36A22005D4001231D4080232C325B01F0
:1036F00013431D602663F8BD0200C02330329B01D6
:1037000013430A4A1A60476A836ABF010620FF18FA
:1037100000F074F9064900F0E5FABF020100380034
:1037200000F0E0FA0021FFF711F8D9E701030000EB
:103730004E0E000010B50C2082B000F0B5F9FFF776
:1037400005F9002810D08B4B8B488B498B4A1860A9
:1037500059609860D960186159619861D96118629F
:1037600059625A6202B010BD854CA06700F0A4F9FE
:103770000122844B1A60636C012BFCD10322824B23
:103780001A607F4A936B012BFCD1013301217F4AE0
:103790007F480093043300F037F905237D4A0093F6
:1037A00001217D4800F030F97C4B5A68FF2A02D88D
:1037B000802252005A608022734B6E4C12011A60B4
:1037C0002169002907D0606900F08CFA01304300BC
:1037D0001B18033BFDD2E022704B714819680A4068
:1037E000026002221968514001320A40042102603D
:1037F0009A681142FCD080216A4A09011160802236
:1038000052005A60684B2361684B5968FF2900D801
:103810005A60032201215B4B1A60644A9368194283
:10382000FCD0E02310680340614803601268032362
:103830004A40022113405D4A036093681942FCD05C
:1038400080215C4B0901196080215B4B490051606C
:1038500063615A4B5A68FF2A00D859608022584B3E
:1038600012011A60E169002907D0606900F03AFA94
:10387000013043001B18033BFDD2E0234F4A11687F
:103880000B4050490B6080214F4B0901196080218A
:10389000394B49005160E3614C4B5A68FF2A00D80C
:1038A000596080224A4B12011A60216A002907D010
:1038B000606900F017FA013043001B18033BFDD28A
:1038C000E023424A11680B4042490B608021424B81
:1038D0000901196080235B0053608022264BD202CD
:1038E00023623E4B5968914200D25A6080223C4B81
:1038F00012011A60616A002907D0606900F0F2F9CC
:10390000013043001B18033BFDD2E023334A11680A
:103910000B4034490B608021334B0901196080232F
:10392000DB025360154B6362304B5A68FF2A02D8A2
:10393000802252005A6080222D4B12011A60A16928
:10394000002907D0606900F0CDF9013043001B1851
:10395000033BFDD2E023254A11680B4025490B604B
:103960008021254B0901196080235B005360124BB5
:10397000A361F7E600A20020006CDC021BB7000088
:10398000008000403CB0004030B00040002F68593B
:1039900000800240008C864700C00240308000401A
:1039A0003090004030A00040001BB7003C80004039
:1039B0003C9000403CA000404059730754800040B8
:1039C00054B000405490004054A00040608000403B
:1039D00060B000406090004060A000406C800040FB
:1039E0006CB000406C9000406CA0004048800040EB
:1039F00048B000404890004048A00040014B800083
:103A0000C058704700A20020F8B5040021481D00EE
:103A100017000E0000F066F90100380000F062F9AE
:103A2000069B29041B0319432368002B20DB1A4B38
:103A30001A4DE21853425A4180235B019C461203FF
:103A4000174B62441A60174B1A601700AB689F430C
:103A5000FBD1C022231D92011A4321232660A060BE
:103A600013602368002BFCDA0823E1601360F8BDC3
:103A70003F2322681340B342D9D1A3681B051B0D15
:103A80008342D4D1EE22E368D20213408B42CED1DE
:103A9000EDE7C046001BB7000040FDBF00C000407E
:103AA00000E0004000F000408023024A9B000343F6
:103AB000D362704700800540AA23064A1B011360A9
:103AC0002F230549D360054B19605368002BFCDA9E
:103AD0007047C0460040024000B0FA00006002405B
:103AE0002C4B2D4A70B51A602C4A2D4B2D491A606B
:103AF00014008B689C43FBD12B4D2C4EB54208D251
:103B0000013E761BB60808CD984723000134B34226
:103B1000F9D1FFF70FFE264A214B1A60214A93681C
:103B2000DB43DB01DD09002BF9D14022214B224C84
:103B3000224E9A675A671A67DA66B44208D2236837
:103B40002000002B20D00C34FEF76EFAB442F6D3DE
:103B50001B4C1C4EC022B168200000F0CDFBB460AD
:103B6000FEF788FFFFF740FAFEF708FC164C174EE9
:103B7000B44208D2013E361BB60808CC98472B0049
:103B800001359E42F9D170BD0834FEF73FFAB442C8
:103B9000D5D3DDE700E00040BFCDFBFEFE7F3C005B
:103BA00000F0004000C00040E4A10020F4A100208B
:103BB000FFFFFF0100F00140D4A10020E4A100209C
:103BC0000000002000ED00E0F4A1002000A2002091
:103BD00000BEFDE710B5FFF7FBFFC0460FB400B510
:103BE000084883B000F038FC049B002B07D005A9DF
:103BF0001800019100F01EF8034800F02DFC012090
:103C0000FFF7E6FFD09D0020409B002010B5014843
:103C1000FFF7E4FFE09D002010B50148FFF7DEFF4D
:103C2000F09D002010B5002800D110BD00F0C8FBA9
:103C3000FBE7C04610B5094A0300146884B0002CA5
:103C400008D0012200910648524203A9A047012052
:103C500004B010BD00F000FC0020F9E75001012085
:103C6000C539002001480421014B184770A10020EC
:103C7000413A0020014B1B681847000070A100204A
:103C8000142310B50100188804331B88984710BD11
:103C9000162310B50100188802331B88984710BD01
:103CA000F8B54746CE4680B50F1E19D01423994665
:103CB000043304000025012698464B4618884346E5
:103CC00021681B88984701C4431E98410135404232
:103CD0000640AF42F1D13000C0BCB946B046F8BD95
:103CE0000126F8E7114A936F9B0813D210665166BC
:103CF000002905D0FFE7FFE7FFE7516F106F70471E
:103D000004B5002801D00020C04305F02BF90021A4
:103D100004BDC046F0B5146E556E576F166FFFF7B1
:103D2000E5FF1466556657671667F0BD000000D0C2
:103D300094464A4A926F9208624601D228E0C046F1
:103D4000F0B5464E346E756E776F366F00F020F822
:103D50009446424A14665566576716676246F0BD38
:103D600094463E4A926F9208624601D254E0C046A1
:103D7000F0B53A4E346E756E776F366F00F04CF8D2
:103D80009446364A14665566576716676246F0BD14
:103D9000002B24DB11D000293EDA00B5C943404294
:103DA00000D1013100F038F8C943404200D101315F
:103DB000DB43524200D1013300BD002AEBD1002881
:103DC00001D1002905D00020C90FC90701D1C04386
:103DD000410800B505F0C6F80022002300BD00B57B
:103DE00000290ADBDB43524200D1013300F014F812
:103DF000C943404200D1013100BDC943404200D116
:103E00000131DB43524200D1013300F005F8DB43BE
:103E1000524200D1013300BD002923D1002B18D11B
:103E2000002A0CD0BC460D4F38667A66002100236C
:103E3000FFE7FFE7FFE77A6F386F674670470028B4
:103E400001D00748010000B505F08CF800220023DE
:103E500000BD02000B00002000217047000000D0D0
:103E6000FFFFFFFF002B00D0BFE0130C28D1002A7A
:103E7000E7D080B4114F39667A66FFE7FFE730B4C8
:103E8000040C7B6F396F1B0423433B667A66FFE7A4
:103E9000FFE7FFE7C04684B27B6F3D6F1B042343FF
:103EA0003B667A66FFE7FFE7C04600232C042D0C33
:103EB0007A6F386F00196941B0BC7047000000D0BC
:103EC000F0B594460025140E01D112020835140FE6
:103ED00001D112010435940F01D192000235D40FA3
:103EE00001D152000135D40B0134254F7C66254C9D
:103EF0003C660E0C93B2FFE7FFE7FFE73C6F6643BB
:103F0000360C7703BE467343DF0B5B04C01AB9411E
:103F1000130C7343DB18C91ACE086643360CB6443B
:103F200093B273431F0F1B01C01AB941130C7343A3
:103F30001F0B1B05C01AB941860D8F023E43664315
:103F4000360C092D24DB520A7243801A7703460A85
:103F50006643360C16235B1BDE40DF40BF19644608
:103F60006643821B7046043506330100D940A840E1
:103F7000C01900D30131A24206D20023F0BD0000D7
:103F8000000000D0FFFFFFFF121B0130F3D3F1E769
:103F900009277F1BFE406446A2B27243801A00D2FA
:103FA0000139220C7243130C1204821A99410B003E
:103FB0007046043513370100F940A840801900D33A
:103FC0000131002B02D1A2420AD2F0BD013000D350
:103FD0000131121BFAD2013BF8D1A24200D2F0BD4E
:103FE000013000D30131121BF7E7F0B51C0C00D0F3
:103FF00080E00CB400251C0A04D11B02160E3343CA
:10400000120208351C0B04D11B01160F3343120199
:1040100004359C0B04D19B00960F3343920002356C
:10402000DC0B02D192185B4101351C0097186441EA
:104030000134464F7C66464C3C660E0CFFE7FFE7BA
:10404000FFE7C0463C6F6643360C7703BE4697B227
:104050007743C01B00D20139C01B00D201399FB287
:104060007743C91BC91B170C77437E04FF0B801BCA
:10407000B941CE086643360C0C2D33DBB644120B27
:104080001F053A431B0B97B27743C01B00D201397F
:104090009FB27743C91B170C77433E043F0C801B2C
:1040A000B941860D8F023E43664329277F1BFE40A0
:1040B0000C3D7746AF40BF1930BCA2B2ABB27243E1
:1040C0007343801A9941220C7243130C1204801A14
:1040D000994102000B000137001BA941F9D2781E5B
:1040E0000021F0BD0C277F1BFE4077467F0BAF40C1
:1040F000FF19E0E700245D1C07D0144F7D66396688
:10410000FFE7FFE7FFE7FFE73C6F95B29EB265432D
:104110006643401BB141150C1E0C654366433604D3
:104120002F0C3E432D04401BB141994204D20200A2
:104130000B0020000021F0BD01D19042F7D3801A7E
:10414000994101349942F2D3F6E70000000000D013
:10415000FFFFFFFF132370B51D78012D15D010DD73
:104160001D48FFF795FD1D4C01008022200000F046
:10417000C3F8022D2DD01A48FFF782FD194B1860A5
:1041800070BD194B154CA364F5E7174B134C236016
:104190006360A360E36023616361A361E361236201
:1041A0006362A362E36223636363A363E3632364E1
:1041B0006364A364E36423656365A365E3652366C1
:1041C0006366A366E36623676367A367E367A36425
:1041D000D1E7054BA364CEE75344000028A3002099
:1041E0004C330000400401208D3F002007B560469D
:1041F00001880A0A0230DF2AFAD1C9B2820804D340
:10420000028840880004104300E00068014A5050D2
:10421000039007BD28A3002051434343C9188C468F
:10422000110C83B24B4310B4040C614392B280B2C0
:10423000504362431C041B0C001910BC5941130469
:10424000120CC0185141614470470000132310B58F
:1042500012481C78FFF71CFD0100012C0AD003DD79
:1042600080220F4800F048F80E48FFF709FD0E4B7A
:10427000186010BD0A4C5422200000F03DF80B4B92
:104280006365A365E36523666366A366E3662367E8
:104290006367A367E3672362E361E5E753460000D2
:1042A00028A400204C33000040040120514000208D
:1042B00007B5604601880A0A0230DF2AFAD1C9B27E
:1042C000820804D3028840880004104300E000689C
:1042D000014A5050039007BD28A400200148042142
:1042E000014B184780A10020413A0020014B1B6878
:1042F0001847000080A10020014B5B6818470000B0
:1043000080A10020F0B546464F46D646C0B5437D55
:1043100080460E001700002B4BD0002A32DD274BC1
:1043200001259A464B1E00240020994607E0335D84
:104330000A2B2CD02B0001340135BB4213DA002CA0
:10434000F5D133780A2BF5D143461B7D002BF1D1F3
:104350004346504602211B68984728002B00013431
:104360000135BB42EBDB874204DD4346391A1B684B
:1043700030189847F619013E33780D3B5A425341A5
:1043800042461375E0BCBA46B146A846F0BD4B465E
:104390001B5D0D2BCED0A042DADA4346211A1B68F2
:1043A000301898474346504602211B68984728001A
:1043B000D4E70368110030009847E3E7609E0020CF
:1043C000F0B5CE46474680B583B06B460600DD1D8E
:1043D0002870FEF7B1F900231A4A12184B418021C8
:1043E00009068B4202D30122174B5242174908009B
:1043F000884604F0FDFD164B81461C68002C14D045
:10440000144F02E02469002C0FD02368002BF9D050
:104410003B68002B01D0A342F4D1200001222900E7
:10442000FFF770FF2469002CEFD14B46002B05D11C
:10443000300003B0C0BCB946B046F0BD404604F001
:1044400063FEF5E740420F00FFFFFF7FDCA1002085
:104450003CFD002044FD0020F0B5DE4657464E46A8
:104460004546E0B585B0070004F08EFD0600FEF776
:1044700063F900232B4A12184B41802109068B4215
:1044800002D30122284B5242284908008B4604F0EF
:10449000AFFD274B01901C689A46002C3BD0254B62
:1044A000984602ABDD1D0A23994602E02469002CE0
:1044B00017D02368002BF9D043461B68002B01D08E
:1044C000A342F3D1200032003900FFF71BFF4B4617
:1044D0002000012229002B70FFF714FF2469002C13
:1044E000E7D1019B002B18D153461C68002C06D045
:1044F0006368002B0BD098472469002CF8D130005A
:1045000005B0F0BCBB46B246A946A046F0BD246942
:10451000002CEDD1F3E70028F1D0584604F0F4FD6B
:10452000E2E7C04640420F00FFFFFF7FDCA1002012
:104530003CFD002044FD00200A4A1368002B05D1F1
:104540000CE01A001B691032002B07D09842F8D1FA
:10455000002902D103691360016170470029FCD072
:104560001060FAE73CFD0020F0B5002915DD0E4B88
:104570000D271A680D4B0E4CD3185D426B41451840
:1045800020215B001E5F0478A64207D09369194280
:10459000FCD101301460A842F5D1F0BD93691942F5
:1045A000FCD11760F2E7C046900401200080FCBFF8
:1045B0008804012030B504000D1E30DD00201021DC
:1045C000204B013C1A689369194217D10130936955
:1045D0001942FCD1136823548542F4D11A4B1B684D
:1045E000002B09D0502338219363536B3432194088
:1045F00080235B011343196028000FE0124B1B68F6
:10460000002B09D0502338219363536B3432194067
:1046100080235B011A431160002810D030BD0A4B83
:104620001B68002B0BD050223821064B1B689A6365
:104630005A6B343311408022520113431960032016
:104640004042EBE790040120ECFC0020064B10B543
:104650001B68002B06D00021044A12689163044AAB
:104660001068984710BDC046ECFC00209004012063
:10467000F0FC00201D4BF0B51A68C64698461C4B4E
:104680000E00D31859424B411A4F14331C00050039
:1046900000B53B68002807D0002B11D0164B3D60B9
:1046A0001E6080BCB846F0BD002BF7D0906300219F
:1046B0002000FEF70BFA20001049FEF745FBEDE75E
:1046C00020000E49FEF71CFA01212000FEF7FEF93A
:1046D0004346502238211B689A635A6B3433114089
:1046E0008022520113431960D8E7C046900401208C
:1046F0000080FCBFECFC0020F0FC0020ED4300201B
:104700000C4B10B51B780C4B0C4C1B780C4B02213E
:1047100000202360FEF754FE02210120FEF750FE28
:10472000E12120684902FEF7C1FE01210548FFF79B
:1047300003FF10BD1C03001018030010900401209B
:104740000040034090A1002070B50C4E0D001C00ED
:104750003060002A03DB02211000FEF731FE002C3E
:1047600003DB02212000FEF72BFE29003068FEF754
:104770009DFE01210248FFF7DFFE70BD900401207D
:1047800090A1002010B5024800F00CF810BDC04602
:104790001404012010B508220149FFF7ADFD10BD3A
:1047A0001404012030B5002589B00400092200213D
:1047B00001A80095FFF79AFD0922002105A804959C
:1047C000FFF794FD4B236A466846137004A90D2237
:1047D00004F0E4FC1521082220006944FFF78CFD59
:1047E00009B030BD10B501210520FEF76FF910BDED
:1047F00010B500220021024800F05AF910BDC04651
:104800006CFD00208022024B5202DA647047C046E1
:1048100000201150F0B5C64600B5060000F022F9A0
:104820000C231B4DFF22AB6705201A49FEF792F9B6
:1048300040239846184C402200212000FFF756FDE7
:1048400043460127238321210023144A6770A26075
:10485000136063545F316184414621870539635495
:104860000F4A10496360E260A1620B606362E2621A
:1048700004F0F4FC80239B052F64EB6490230A4A28
:104880003000EA50FFF7BEFF80BCB846F0BDC0461E
:1048900000001150119100204CFD002084001050A8
:1048A000000110508000105010D001000B785B0602
:1048B00002D14B78052B00D070478A78014B1A60E3
:1048C000FAE7C04600001150F0B5C64600B5CC78F6
:1048D00088780A794B797F21A40701401B02C5091A
:1048E00013434F00A20F1400324E7A195201B2182E
:1048F000907001206840507000205B055B0DD07007
:104900001383D4768046CA00012D33D02A488446CA
:10491000880162448446B444604682604046106028
:10492000002933D0254AC90090466246414451606F
:104930003F223F339343022C00D15B0020487A1979
:1049400001685201B218D1601E4ACB180360514071
:104950005A40802388465B019A4228D84346A406E1
:104960001C4380237F197F01F61972681B062343BD
:10497000136011E014488446880162448446B444BC
:104980006046826240461060002909D100236D0113
:1049900075196B600D4BEB60012080BCB846F0BD13
:1049A000084AC9009046624641445162C0E7FFF799
:1049B00033F9D3E74CFD0020840010500400105060
:1049C00054010120000010508000105000011050D0
:1049D00010B504F043FC10BD10B57F200C00204042
:1049E0004000E409110000191A00034B4001C018EF
:1049F00000F05EF8012010BD4CFD00207F23180060
:104A000010B508400B420BD0C90980224000074B6B
:104A1000401840010021C018120104F0DBFF10BD56
:104A20000223034AC9095B1A9366EEE74CFD002096
:104A3000002011507F22130010B50B400A4200D114
:104A400010BDC9095B005B1804485B01C018002356
:104A500000220349C37004F0BDFFF1E74CFD0020C4
:104A6000FFF7FFFF80220D4B520410B51A600C4B6C
:104A70000C491A6010008B689843FBD10A4C9C22A9
:104A800000212000FFF732FC80220021520107485C
:104A9000FFF72CFC0923636710BDC04600E000400F
:104AA00000F0004000C00040000011500000105015
:104AB000002310B5C3820133828283760161040032
:104AC00004F0E6FE002804D080219023074A8902E2
:104AD000D150200004F0F0FE002802D001232377FB
:104AE00010BD200004F0A2FFFAE7C04600201150DC
:104AF000F8B5214A214E050000243378204F002AC2
:104B00002DD0A34222D8E31ADBB2022B1DD85A00C3
:104B1000D318DB00DB195B68280098473378013431
:104B2000E4B29A1CA242ECDA164C53220021200077
:104B3000FFF7DCFB1022FF21E01CFFF7D7FB200072
:104B40002022FF211330FFF7D1FBF8BD0E4B62008E
:104B50001B681219D2009B18002BDCD1F5E700244A
:104B60007B682800984733780134023318379C4219
:104B7000DADC032CE9D0F3E72D1100208D050220AB
:104B8000909F0020F0B9002078A70020024B5878B1
:104B9000431E9841C0B27047F0B90020024B18780C
:104BA0004007C00F7047C046F0B90020034B18788B
:104BB000FF38431E9841C0B27047C046CCA10020C8
:104BC000F0B5C64600B5334E05003378FF2B01D053
:104BD000012053E0532200212F48FFF787FB2F4C81
:104BE0002000FDF713FA2E4B1C602E4C2000143CC5
:104BF000FDF72AFA200001F061FE2B4B2B4F1C60C1
:104C00002B4B9846002B26D03800FCF7BFFB294BD6
:104C100018603B7842460024002A1ED0264A90465F
:104C2000A3422ED8E31ADBB2022B26D85A00D3189F
:104C3000DB0043441B6898473B780134E4B29A1C7C
:104C4000A242EDDA28003570FFF7E4FD2800FFF7F7
:104C5000C9FD012012E03B78DCE7174B00249846A1
:104C600043461B68984718239C463B78013402331F
:104C7000E0449C42E6DC032CF2D1002080BCB84624
:104C8000F0BD0C4B62001B681219D2009B18002B60
:104C9000D0D1F2E7CCA10020F0B90020A8B90020C3
:104CA00044BA0020C4A1002048BA00208D0502208B
:104CB0002D11002078A70020909F002010B501F052
:104CC00035FB002806D0044B186801F01BFC0123BB
:104CD0005840C0B210BDC04648BA0020F0B5DE460C
:104CE00057464E464546E0B58FB001F01FFB002801
:104CF00000D1C2E0BA4BBB4E0093BB4B0BAC01934F
:104D000035686A69EFF3108172B61368002BFCD026
:104D1000BFF35F8FA9612800210001F011FC6A69CF
:104D2000AB69BFF35F8F0021116083F31088002807
:104D300000D1A2E06378082BE2D8009A9B00D358F8
:104D40009F466368002BDBD0A0689847D8E77F2296
:104D50002179A54B0A405500C8095B191B1818009A
:104D600001273030C578BD43C570C5780337BD43D2
:104D7000C570002A00D187E09C4ADB7C002A05D060
:104D80009B4A1278934270D39B1ADBB2022B74D8E1
:104D90005D00ED18974BED00ED18A368627920785F
:104DA0002D69A847ACE701228F4D01212B78042003
:104DB00013432B703323EA5C27788A43EA54EA5C76
:104DC0008243EA540133EA5C8A43EA54EA5C824350
:104DD0000020EA5400F07EFC602223791A40602A09
:104DE0000AD0402A56D0DB06DB0E012B00D19CE016
:104DF000022B68D0002B5BD020780021FFF7FEFD4E
:104E000080212078FFF7FAFD7AE7019B1B78DB070A
:104E100000D475E7784B002B00D171E700E000BFAC
:104E20006EE7019A1378DB0700D469E7734B002B18
:104E300000D165E710780007C00F00E000BF5FE712
:104E40002078FFF755FE00F03BFC6D4B002B00D1A6
:104E500056E700E000BF53E72078FFF749FE00F077
:104E60002FFC614B22799A704AE7664A5800156810
:104E7000C318DB00ED18002D8FD10FB0F0BCBB467E
:104E8000B246A946A046F0BDA3686279207800F03A
:104E900035FC35E75C480028AED000F01BFC012152
:104EA00038000CAAFBF736FB002800D028E7A3E760
:104EB000202A74D0002A9FD16379092B9CD8534AA9
:104EC0009B00D3589F467023217A0B4294D1C80986
:104ED00082460F330B405B00E8185044C07C0293BD
:104EE00084464248002808D041480078844500D2D2
:104EF000BAE06346181AC3B29C466046022800D93D
:104F000086E03C4B400098466044C0008044002A44
:104F100000D182E04346D86800F0DCFB4346012123
:104F20003800DB680CAA9847BEE7237A0F2B00D91C
:104F300062E72E4AEB18DB78002A06D02C4A12785A
:104F4000934200D286E09B1ADBB2022B00D953E7D2
:104F50005D00ED18274BED00ED18E86800F0BAFB96
:104F600001213800EB680CAA9847002800D0C7E65A
:104F70006022150023791D401A4200D03CE7637976
:104F80000A3B012B00D937E700F0A4FB63790A2B19
:104F900000D15AE138000CA900F026FBB0E6237AD4
:104FA0000F2B00D928E7114AEB18DB78002A06D02E
:104FB0000F4A1278934200D223E19B1ADBB2022BF4
:104FC00000D919E75D00ED180A4BED00ED18E8680F
:104FD00000F080FB01213800EB680CAA984763E7DA
:104FE000049F002048BA0020F0B900202D110020B5
:104FF0008D050220909F00200000000000000000AE
:105000000000000078A70020B5020020289F0020A3
:10501000002A00D0F0E600239846637999460223DF
:105020004A469B469A43012A00D1C4E04B46002BD6
:1050300000D0E1E6029B0AAAEB1853443033DB7838
:1050400002329B07DB0F1380380002230CA900F00B
:10505000E1FA55E6D04A59001568CB18DB00ED1887
:10506000002D00D079E7C7E663465B009846C4444C
:105070006346DB009C46C848006860448046002ABE
:10508000CBD0002800D045E7B6E6A3799A466B78E6
:105090009A4507D06B78002B00D059E15346002B7E
:1050A00000D0EBE0534638000CA96B7000F09CFA7E
:1050B00026E66B780AAA02321370380001230CA985
:1050C00000F0A8FA1CE6E3881A0AD8B20F2A00D921
:1050D00092E6B2499300CB589F460CA800F000FB23
:1050E0003800A179FFF784FB02222B7813432B7041
:1050F00006E6E388012B00D07EE608222B783800F4
:1051000093430CA92B7000F06FFAF9E5022029787F
:105110000AAB9A1C8B068908DB0F01400B4392E710
:10512000E388012B00D067E608222B783800134370
:105130000CA92B7000F058FAE2E5994B002B00D136
:105140005AE6FBF76FFA021E00D155E6D378917844
:105150001B020B4338000CA900F05CFAA4E6914B4B
:10516000002B00D148E600E000BF021E00D143E65C
:10517000380013780CA900F04DFA95E62189FBF769
:1051800013FA021EF4D137E6022A00D154E1864B0D
:10519000002B00D130E600E000BF0200002A00D161
:1051A0002AE6D3E7FBF7F0F9122302000CA9380036
:1051B00000F030FA78E6E288002A0CD14B46012B49
:1051C00029D030229146029BEB18534499444B4618
:1051D000DB789B0742D54346002B00D190E5D86889
:1051E00000F078FA43460121DB680CAA38009847A2
:1051F000002000F06FFA3423EB5CDB0700D57FE57D
:10520000C8E6654A59001568CB18DB00ED18002D7B
:1052100000D0DCE6F0E5029B3032EB1853449246B6
:105220009A445346DB789B07D5D5604B1878FFF737
:1052300001FC53465A46DB7893435246D370D378E9
:105240004A4693435246D370C5E70AAB9A1C3800CE
:1052500001230CA9157000F0DDF951E5534B1878C6
:10526000FFF7CCFB4B460222DB7813434A46D37050
:10527000D378012213434A46D370ACE7581EC0B21C
:10528000FBF78AF9002800D1B6E543780693022B94
:1052900000D0B1E50121C379B3469A115B110A40F0
:1052A0000B4052011B0113432A782F318A431343C9
:1052B0002B7009239946C37882781B021343C318C5
:1052C00005933B4B814404933A4B4E460893534617
:1052D000B946AA460993059BB34200D8A0E0012233
:1052E000737803920B2B03D1F37803933378F6187A
:1052F0007378042B2AD100229046059B17009B1B34
:105300009BB20293089A049B1B7842452BD02A4AF1
:1053100007929F427BD3FB1ADBB2022B16D81822CE
:105320005343079A9D1831004846AB68029A984744
:105330008446082802D9029A824243D2049B01374C
:105340001B78FFB29A1CB846BA42E2DA5E4653E5D1
:105350003800FFF73DFBAB7838009846FFF7C8FBF5
:105360004346AB709AE64546134F032DEED031000D
:105370004846BB68029A98478446082802D9029A90
:1053800082421BD2049B01351B78183702339D42A1
:10539000EBDD5E4630E5C04678A70020509F002038
:1053A000C50300200000000000000000CCA1002088
:1053B0008D0502202D110020909F00202B00984683
:1053C0003D00DFB2039B012B3AD00022504609E09A
:1053D000B378D318DBB2C318D978FF29B6D101321C
:1053E000DF70D2B2039B9A42F2D165463B00310096
:1053F00082462A00164801F01FF8AC46049B66441A
:105400001B780233434500DB65E75E46F4E418236E
:10541000104A7B431568ED18002D84D15E46EBE4FD
:10542000099B55469A460C4B4F465E46002B00D1D1
:1054300038E600E000BF35E6FBF7AEF80200ADE667
:10544000064BAA689A42C0D1069B0393BDE7C046AB
:1054500003BA002078A70020000000003558002083
:10546000F8B557464E46DE4645460C00E0B51600F8
:105470001F00002A3CD01F4B00259A4670239946F6
:105480001D4B9B4617E05B462000997800F096FF85
:1054900000281FD021004046FFF716FA002819D037
:1054A000A378DA09012A1CD00A9A013513702378EF
:1054B000E418B5421CDA6378052B0BD1E3789B071F
:1054C0009B0FBB4206D153464A461B789846A378A9
:1054D0001A42D8D00020F0BCBB46B246A946A0462E
:1054E000F8BD0B9A013513702378E418B542E2DB5E
:1054F0000120F0E7CCA10020F0B90020702270B5A7
:10550000094B0C001D788B781A4201D0002070BD29
:10551000064B2000997800F051FF0028F6D02100BA
:105520002800FFF7D1F9F2E7CCA10020F0B9002064
:105530000B007F2010B51840DB0933334000044ACC
:10554000C018044B1168C01800F0F4FE10BDC0462E
:1055500044BA0020F0B900200B007F2010B518409D
:10556000DB0933334000044AC018044B1168C018EB
:1055700000F008FF10BDC04644BA0020F0B900207A
:1055800070B57F240F480C4064000419CD096419DC
:105590003034E078C00701D5002070BD0126E578E1
:1055A000094835430078E570FFF716FA0028F4D172
:1055B0000122E3789343E370E37803329343E3708B
:1055C000EAE7C046F0B90020CCA100207F22054BBD
:1055D0000A405200C9099B185B183033D878C007BD
:1055E000C00F7047F0B9002070B5094C06000822C2
:1055F00020000D00FEF780FE00238021E360A36001
:105600002B783000994300220023FFF7B9FF70BDCB
:10561000C4B80020F8B5CE4647469046264E80B521
:105620008146082230000D001F00FEF765FE43464C
:10563000B3600023F381EC79AB7924021C43231C73
:10564000BC4200D93B1C9FB2B381002C0ED0002F6E
:1056500018D04346002B2CD03B1C402F1BD89FB2A8
:1056600033787F2B1CD80021144A0FE080212B783F
:105670000022994348460023FFF782FFC0BCB94689
:10568000B046F8BD7F230022317899433B0048465D
:10569000FFF776FFF2E740239FB233787F2BE2D902
:1056A000064C3A0041462000FEF726FE80212200EB
:1056B000ECE70020E2E7C046C4B80020B0B9002003
:1056C00010B5142200210248FEF710FE10BDC0469E
:1056D000C4B80020014B18617047C046C4B8002010
:1056E00010B5054C010008222000FEF705FE00233E
:1056F000A360E36010BDC046C4B8002070B5394C4B
:105700001D0023780600DA09C9098A4213D0002057
:10571000002D00D070BD344B002B03D02100300091
:10572000FFF7C4F82369002B03D0220003213000C7
:1057300098470120EEE77F2B06D8A068002834D0D8
:105740002A002A49FEF7D8FDE289A1685219E388A8
:1057500092B24919E281A160934214D03F2D12D92F
:10576000A389981A051C80B240282AD82078ADB2A7
:105770007F2828D800219A4232D01C4A2B003000C2
:10578000FFF7FEFEC6E72369002B05D022000221A9
:105790003000984700280AD08021237800229943BE
:1057A00030000023FFF7ECFEB4E70020B2E7002151
:1057B0003000FFF723F930008021FFF71FF90120A7
:1057C000A8E74025D2E79A4207D0084C2A002000DB
:1057D000FEF792FD80212200D0E780210022CDE754
:1057E0000022CBE7C4B800204D460020B0B900200D
:1057F00010B50400FFF7CAF9002801D1002010BD40
:10580000FFF7CCF90028F9D1034A044B62439B18F7
:105810001B7901301840F2E7481100007CA70020F6
:10582000034B10B543430348181800F055FE10BD54
:10583000481100008CA70020F0B5194DC64645431D
:105840002C00184F1034E41900B5200092B200F07B
:10585000C5FE0600200000F05DFE3F2803D83000A2
:1058600080BCB846F0BD7B190020D9789846FFF778
:105870005FFE0028F3D0200000F04CFE3F2809D93D
:10588000094B0020EA184346D219D9784023FFF784
:1058900077FEE4E743460020D978FFF75DFEDEE7B8
:1058A000481100007CA70020C8100000F8B5144D76
:1058B000144E45432C001034A419200000F0FEFFC4
:1058C000200000F027FE3F2800D8F8BD77190020FF
:1058D000F978FFF72DFE0028F7D0200000F01AFE1F
:1058E0003F2808D9084BF978EA189219402300207C
:1058F000FFF746FEE9E7F9780020FFF72DFEE4E721
:10590000481100007CA70020C8100000F8B5040072
:10591000FFF73CF9002801D10020F8BDFFF73EF960
:105920000028F9D1154B164E5C4325002435AD19DE
:10593000280000F0D1FD0028EED037190020B978FA
:10594000FFF7F6FD0028E7D00E4B28009C46644484
:10595000A4192100402200F041FEB978051E08D0AC
:10596000030022000020FFF70BFE0028D4D02800FF
:10597000D3E70020FFF7F0FDCEE7C0464811000056
:105980007CA700200811000070B50A4C0A4B444364
:10599000E418050092B2200000F0D8FE06002000B6
:1059A00000F09AFD3F2801D8300070BD2800FFF7B5
:1059B000ADFFF9E748110000A0A70020034B10B588
:1059C00043430348181800F0A5FD10BD481100001E
:1059D000A0A70020034B10B543430348181800F05C
:1059E0006DFF10BD48110000A0A7002070B51A4C33
:1059F00082B000212000194AFEF778FCFF23637172
:105A0000174B0025E3800126082321002000268172
:105A10002373802238310095073B103000F026FDBB
:105A2000210020008022B831520100960123243049
:105A300000F01CFD0B4BE6183000FCF7E7FA86235C
:105A40005B012662E6183000E561FCF7DFFA2663A9
:105A5000656302B070BDC0467CA7002048110000FD
:105A600000C2FFFFB810000010B5094C052200214C
:105A70002000FEF73BFC20002434103000F01EFF15
:105A8000200000F01BFF0121200000F037FF10BDB7
:105A90007CA70020F0B54B79060083B0022B02D121
:105AA0008B79022B03D00025280003B0F0BD2E4FC8
:105AB000BB78002BF7D18B7809253B700C780C193B
:105AC0006378242B0BD1082A02D81FE0AA421DD3E9
